{
  "contractName": "HealthRecord",
  "abi": [
    {
      "constant": false,
      "inputs": [
        {
          "internalType": "string",
          "name": "_name",
          "type": "string"
        },
        {
          "internalType": "uint256",
          "name": "_temp",
          "type": "uint256"
        },
        {
          "internalType": "bool",
          "name": "_hasSymp",
          "type": "bool"
        }
      ],
      "name": "addUser",
      "outputs": [],
      "payable": false,
      "stateMutability": "nonpayable",
      "type": "function"
    },
    {
      "constant": false,
      "inputs": [
        {
          "internalType": "uint256",
          "name": "_temp",
          "type": "uint256"
        },
        {
          "internalType": "bool",
          "name": "_hasSymp",
          "type": "bool"
        }
      ],
      "name": "updateRecord",
      "outputs": [],
      "payable": false,
      "stateMutability": "nonpayable",
      "type": "function"
    },
    {
      "constant": true,
      "inputs": [],
      "name": "getUserCode",
      "outputs": [
        {
          "internalType": "uint256",
          "name": "",
          "type": "uint256"
        }
      ],
      "payable": false,
      "stateMutability": "view",
      "type": "function"
    },
    {
      "constant": true,
      "inputs": [],
      "name": "hasRecord",
      "outputs": [
        {
          "internalType": "bool",
          "name": "",
          "type": "bool"
        }
      ],
      "payable": false,
      "stateMutability": "view",
      "type": "function"
    }
  ],
  "bytecode": "0x608060405234801561001057600080fd5b506107d0806100206000396000f3fe608060405234801561001057600080fd5b506004361061004c5760003560e01c80632a5a209014610051578063c234f9d61461008b578063e6c8d144146100a9578063f0f0ed6c1461017a575b600080fd5b6100896004803603604081101561006757600080fd5b810190808035906020019092919080351515906020019092919050505061019c565b005b610093610336565b6040518082815260200191505060405180910390f35b610178600480360360608110156100bf57600080fd5b81019080803590602001906401000000008111156100dc57600080fd5b8201836020820111156100ee57600080fd5b8035906020019184600183028401116401000000008311171561011057600080fd5b91908080601f016020809104026020016040519081016040528093929190818152602001838380828437600081840152601f19601f820116905080830192505050505050509192919290803590602001909291908035151590602001909291905050506103e8565b005b61018261069b565b604051808215151515815260200191505060405180910390f35b3360008060008373ffffffffffffffffffffffffffffffffffffffff1673ffffffffffffffffffffffffffffffffffffffff16815260200190815260200160002090508060070160009054906101000a900460ff166101fa57600080fd5b60008060003373ffffffffffffffffffffffffffffffffffffffff1673ffffffffffffffffffffffffffffffffffffffff16815260200190815260200160002090506025851115801561024b575083155b1561028f578060020160030160008154809291906001019190505550806002016002015481600201600301541061028a57600081600201600401819055505b61032f565b6000816002016004015414156102ea5760258511156102c75760028160020160040181905550600e81600201600201819055506102e9565b83156102e85760018160020160040181905550600781600201600201819055505b5b5b600181600201600401541480156103015750602585115b156103215760028160020160040181905550600e81600201600201819055505b600081600201600301819055505b5050505050565b60003360008060008373ffffffffffffffffffffffffffffffffffffffff1673ffffffffffffffffffffffffffffffffffffffff16815260200190815260200160002090508060070160009054906101000a900460ff1661039657600080fd5b60008060003373ffffffffffffffffffffffffffffffffffffffff1673ffffffffffffffffffffffffffffffffffffffff16815260200190815260200160002090508060020160040154935050505090565b60008060003373ffffffffffffffffffffffffffffffffffffffff1673ffffffffffffffffffffffffffffffffffffffff16815260200190815260200160002090508060070160009054906101000a900460ff161561044657600080fd5b828160020160000181905550818160020160010160006101000a81548160ff02191690831515021790555060258311158015610480575081155b156104a45760008160020160020181905550600081600201600401819055506104f2565b602583111580156104b25750815b156104d65760078160020160020181905550600181600201600401819055506104f1565b600e8160020160020181905550600281600201600401819055505b5b60405180608001604052808581526020013373ffffffffffffffffffffffffffffffffffffffff168152602001826002016040518060a0016040529081600082015481526020016001820160009054906101000a900460ff1615151515815260200160028201548152602001600382015481526020016004820154815250508152602001600115158152506000803373ffffffffffffffffffffffffffffffffffffffff1673ffffffffffffffffffffffffffffffffffffffff16815260200190815260200160002060008201518160000190805190602001906105d79291906106f6565b5060208201518160010160006101000a81548173ffffffffffffffffffffffffffffffffffffffff021916908373ffffffffffffffffffffffffffffffffffffffff1602179055506040820151816002016000820151816000015560208201518160010160006101000a81548160ff021916908315150217905550604082015181600201556060820151816003015560808201518160040155505060608201518160070160006101000a81548160ff02191690831515021790555090505050505050565b6000806000803373ffffffffffffffffffffffffffffffffffffffff1673ffffffffffffffffffffffffffffffffffffffff16815260200190815260200160002090508060070160009054906101000a900460ff1691505090565b828054600181600116156101000203166002900490600052602060002090601f016020900481019282601f1061073757805160ff1916838001178555610765565b82800160010185558215610765579182015b82811115610764578251825591602001919060010190610749565b5b5090506107729190610776565b5090565b61079891905b8082111561079457600081600090555060010161077c565b5090565b9056fea265627a7a723158202ebb5cd18a3fbfada7c19e3e1fc56960822abb2c41eed859f75f67e53001fe4364736f6c63430005100032",
  "source": "pragma solidity ^0.5.0;\n\n\ncontract HealthRecord {\n    mapping(address => User) internal users;\n\n    struct Record {\n        uint256 temp;\n        bool hasSymp;\n        uint256 total; // total quarantine days required\n        uint256 counter; // number of quarantine days\n        uint256 code; //0: green; 1:yellow; 2:red\n    }\n\n    struct User {\n        string name;\n        address id;\n        Record record;\n        bool hasRecord;\n    }\n\n    // exist or not\n    modifier checkUser(address id) {\n        User storage u = users[id];\n        require(u.hasRecord);\n        _;\n    }\n\n    //initial record\n    function addUser(string memory _name, uint256 _temp, bool _hasSymp) public {\n        User storage u = users[msg.sender];\n        // require(keccak256(_name) != keccak256(\"\"));\n        require(!u.hasRecord);\n        u.record.temp = _temp;\n        u.record.hasSymp = _hasSymp;\n        //initial state\n        if (_temp <= 37 && !_hasSymp) {\n            //green\n            u.record.total = 0;\n            u.record.code = 0;\n        } else if (_temp <= 37 && _hasSymp) {\n            //yellow\n            u.record.total = 7;\n            u.record.code = 1;\n        } else {\n            //red\n            u.record.total = 14;\n            u.record.code = 2;\n        }\n\n        users[msg.sender] = User({\n            name: _name,\n            id: msg.sender,\n            record: u.record,\n            hasRecord: true\n        });\n    }\n\n    function updateRecord(uint256 _temp, bool _hasSymp)\n        public\n        checkUser(msg.sender)\n    {\n        User storage u = users[msg.sender];\n        if (_temp <= 37 && !_hasSymp) {\n            u.record.counter++;\n            if (u.record.counter >= u.record.total) {\n                u.record.code = 0; //change into green code\n            }\n        } else {\n            if (u.record.code == 0) {\n                if (_temp > 37) {\n                    //green to red\n                    u.record.code = 2;\n                    u.record.total = 14;\n                } else if (_hasSymp) {\n                    // green to yellow\n                    u.record.code = 1;\n                    u.record.total = 7;\n                }\n            }\n            if (u.record.code == 1 && _temp > 37) {\n                //yellow to red\n                u.record.code = 2;\n                u.record.total = 14;\n            }\n            u.record.counter = 0; //resume when unhealthy\n        }\n    }\n\n    function getUserCode() public view checkUser(msg.sender) returns (uint256) {\n        User storage u = users[msg.sender];\n        return u.record.code;\n    }\n\n    function hasRecord() public view returns (bool) {\n        User storage u = users[msg.sender];\n        return u.hasRecord;\n    }\n}\n",
  "sourcePath": "/Users/rymaspic/Courses/CloudComputing/Cloud-Computing-Project/contracts/healthRecord.sol",
  "compiler": {
    "name": "solc",
    "version": "0.5.16+commit.9c3226ce.Emscripten.clang"
  },
  "schemaVersion": "3.1.0",
  "updatedAt": "2020-05-14T07:22:14.639Z",
  "networkType": "ethereum",
  "devdoc": {
    "methods": {}
  },
  "userdoc": {
    "methods": {}
  }
}